:020000040800F2
:1000000098230020A5110008D1020008D30200089F
:10001000E7020008EB020008EF0200080000000001
:10002000000000000000000000000000F3020008D3
:10003000F502000800000000EF560008490F000814
:10004000BF110008BF110008BF110008BF11000850
:10005000BF110008BF1100085D090008BF110008AA
:10006000BF110008070F0008BF110008BF110008EA
:10007000BF110008BF110008BF110008BF11000820
:10008000BF110008BF110008BF110008BF11000810
:10009000E16F0008BF110008BF110008BF11000880
:1000A000BF110008BF110008BF110008BF110008F0
:1000B000BF110008010A0008170A0008BF11000854
:1000C000BF110008BF110008BF110008BF110008D0
:1000D000BF11000811110008BF1100085D0A0008D7
:1000E000BF110008BF110008D56F0008DFF80CD061
:1000F00007F0FEFF004800475D020008982300203B
:1001000000BF00BF00BF02E000F060FD00BFFBE7E2
:1001100029E05E48008810B35C480088C0F30D04F5
:1001200022465B495B4807F079FC594801785AA0A0
:1001300007F078F859A007F075F85548007830288E
:1001400003D100205749086006E051480078312863
:1001500002D101205349086000204C4908804FF427
:100160007A7000F050FFD4E70EB500BF00264EA213
:1001700007CA8DE807004F4800681FE04E48008816
:1001800000F40040A0B14C480088C0F30D050024E5
:1001900005E04A49085D07F030F8601C84B2AC42C3
:1001A000F7DB3EA007F03EF800204349088005E059
:1001B000701C86B24FF47A7000F025FFDEE770B550
:1001C0000446002500BF05F06BFA054605233C4AAE
:1001D0000021AFF26B0004F029FB0623394A00210D
:1001E000AFF2D30004F022FB0723374A0021AFF21D
:1001F000EF0004F01BFB4FF4E16000F004FF00206F
:1002000006F047FF4FF42F7000F0FDFE012006F0CE
:1002100040FF06F0E9FE06F007FF06F0ADF800F03B
:100220005DF900F0C3FC4FF4E13000F03BFC00F05E
:1002300043FB00F021FD40F2CF2140F2CF7000F0EF
:10024000A5FD41F61F4142F20F7000F0C0FB0A20ED
:1002500004F098FB284605F027FA70BD10B54FF45E
:10026000A06000F0B1FF00F07DFE4FF4E13000F03F
:1002700003FF02F060FE0A23144A0021AFF2C1001E
:1002800004F0D4FA02F07EFF002010BD1800002018
:10029000CE060020C4060020256300000D0A0D0ACA
:1002A00000000000B40122427573625F7461736BD9
:1002B00000000000B4010020BC00002070200020DD
:1002C000C0060020C0030020C0040020C00200209F
:1002D000704707E00848006808B9012000E00020E6
:1002E00005490860F6E700BFFEE700BFFEE700BF74
:1002F000FEE7704770470000B40122420CB50020B1
:10030000019000906C48006840F480306A490860B1
:1003100000BF6948006800F4003000900198401C5C
:100320000190009818B90198B0F5A06FF1D162481A
:10033000006800F4003010B10120009001E00020BE
:1003400000900098012843D15C48006840F01000FC
:100350005A4908600846006820F003000860084613
:10036000006840F002000860534840685249486005
:100370000846406848600846406840F4806048602D
:100380000846406820F47C1048600846406840F405
:10039000E81048600846006840F08070086000BFC0
:1003A0004548006800F000700028F9D042484068D5
:1003B00020F00300404948600846406840F00200D1
:1003C000486000BF3C48406800F00C000828F9D1A4
:1003D0000CBD10B5FFF792FF10BD10B53648006890
:1003E00040F001003449086008464068344908403C
:1003F0003149486008460068324908402E49086083
:100400000846006820F4802008600846406820F410
:10041000FE0048604FF41F008860FFF7DAFF4FF0DE
:1004200000602949086010BD10B50021002000229D
:10043000214B5B6803F00C0121B1042906D0082987
:1004400028D107E0214B224C236027E01F4B204C92
:10045000236023E0184B5B6803F47010164B5B6855
:1004600003F48032022303EB904022B9194B43433B
:10047000174C23600DE0104B5B6803F4003323B18D
:10048000144B4343124C236003E0104B4343104C86
:10049000236003E00D4B0E4C236000BF00BF064BF2
:1004A0005B68C3F303130C4CE15C094B1B68CB4046
:1004B000074C236010BD00000010024000200240E5
:1004C0000000FFF8FFFFF6FE08ED00E000127A00E2
:1004D0000000002000093D000400002010B500F0DD
:1004E000BBF810BD70B50446002600F0CCF82546D8
:1004F000E11704EB11610912A02202EB4101C8B21D
:1005000000F073F900F000F9E11704EB1161091232
:10051000A4EB0121C8B200F068F900F0F5F800F092
:10052000B2F8A12000F061F900F0EEF8002000F030
:100530008AF9064600F0C7F8304670BD70B504462B
:100540000E4600F0A0F82546E11704EB11610912F0
:10055000A02202EB4101C8B200F047F900F0D4F844
:10056000E11704EB11610912A4EB0121C8B200F0FC
:100570003CF900F0C9F8304600F037F900F0C4F853
:1005800000F0A1F80A2000F03EFD70BD2DE9F04119
:1005900005460E461746002409E0E20026FA02F25C
:1005A000D1B22A1990B2FFF7C9FF601CC4B2BC4295
:1005B000F3DBBDE8F0812DE9F04107460C4600264B
:1005C000002509E036023919491B491E88B2FFF798
:1005D00089FF0644681CC5B2A542F3DB3046BDE87E
:1005E000F08110B5FF20FFF77DFF0446552C01D1A7
:1005F000002010BD5521FF20FFF7A0FFFF20FFF7CF
:1006000071FF0446552C01D10020F2E70120F0E7EC
:1006100070B506460C46154608E03046721C96B288
:10062000FFF760FF04F8010B681E85B2002DF4D1BE
:1006300070BD70B505460C46164606E02178284682
:10064000FFF77CFF681C85B2641C301EA6F1010117
:100650008EB2F3D170BD000008B50121082001F071
:100660003DF9C020ADF8000010208DF803000320F4
:100670008DF8020069468D4800F074FEC0218B4859
:1006800000F01DFF08BD10B58848006820F07040DC
:10069000864908600846006840F040500860012024
:1006A000834908608349C1F89801042000F080FC68
:1006B00000207F490860042000F07AFC00207D497A
:1006C000C1F8980110BD10B57848006820F070405E
:1006D000764908600846006840F0405008600020F5
:1006E0007349091F08607349C1F89C01042000F098
:1006F0005FFC01206E49091F08606E49C1F89C012A
:10070000042000F055FC10BD10B5002467480068B7
:1007100020F07040654908600846006840F00040DD
:10072000086001206249086000F042FC0120614934
:10073000C1F8980100F03CFC07E0601CC4B2FA2C40
:1007400003DDFFF7C0FF012010BD59488038006865
:100750000028F2D15649091F086000BFF4E710B520
:1007600000205349091F08605048006820F070407D
:100770004E4908600846006840F04050086000207C
:100780004C49C1F89C01022000F012FC01204849AC
:10079000091F0860022000F00BFC00204549C1F849
:1007A000980110BD10B500204149091F08603F485D
:1007B000006820F070403D4908600846006840F03D
:1007C0004050086001203B49C1F89C01022000F024
:1007D000EFFB01203649091F0860022000F0E8FB0A
:1007E00000203449C1F8980110BD70B504462F4867
:1007F000006820F070402D4908600846006840F00D
:100800004050086000202A49091F0860002517E0B1
:10081000E009274908606006040E022000F0C8FBCA
:1008200001202449C1F89801022000F0C1FB0020FA
:100830001F49091F0860022000F0BAFB681CC5B2FE
:10084000082DE5DB70BD70B505460024174800682B
:1008500020F07040154908600846006840F00040EC
:100860000860002617E000201149091F08600220D7
:1008700000F09EFB01200F49C1F898016006040EAC
:100880000B488038006808B1601CC4B2012000F039
:100890008FFB701CC6B2082EE5DB15B9FFF782FF8F
:1008A00001E0FFF75CFF204670BD0000000C014036
:1008B0009C8121420080214208B50121102001F0D5
:1008C0000DF84FF40050ADF8000010208DF8030033
:1008D00003208DF802006946044800F043FD4FF400
:1008E0000051034800F0EBFD08BD0000001001407E
:1008F000000C01401FB50120ADF8000002208DF86A
:10090000020048208DF803006946194800F02AFDCE
:100910000121084600F0E2FF0021084600F038FE01
:100920000120029000208DF80C0001208DF80E00AF
:100930000C208DF80D0002A801F046FA06208DF873
:10094000040002208DF8050003208DF80600012028
:100950008DF8070001A800F03CFC1FBD10B5012078
:1009600001F098FA10B1012001F0A5FA10BD0000C5
:10097000000801407FB505460C460121022000F029
:10098000BAFFADF80850ADF804400020ADF80A00F9
:10099000ADF8060001A92D4801F06AFB01221146BD
:1009A0002A4801F0DCFE1D208DF8000000208DF8A3
:1009B000010003208DF8020001208DF80300684635
:1009C00000F007FC0121214801F0AEFE7FBD3EB5DD
:1009D00005460C460121042000F08DFFADF80450BF
:1009E000ADF800400020ADF80600ADF80200694601
:1009F000174801F03DFB0121154801F095FE3EBD71
:100A000010B50121114802F058F918B101210F4821
:100A100002F064F910BD10B501210D4802F04DF946
:100A200018B101210A4802F059F910BD09480068BF
:100A3000401C08490860704710B50648006807F078
:100A4000DEF90446044907F014F810BD0004004024
:100A500000080040140000200000484310B540F298
:100A600025514D4801F05EF9D8B14B4801F0DAF854
:100A7000C4B24A48008800F4004090B94748008852
:100A8000B0F5167F07DA45490888411C434A1180B2
:100A900043490C5405E04148008840F400403F4978
:100AA000088010BD10B586B004460121082000F072
:100AB00015FF0121880400F01EFF374800F072FF87
:100AC0004FF48060ADF8100003208DF8120018205C
:100AD0008DF8130004A9334800F044FC4FF4006083
:100AE000ADF8100004208DF8130004A92D4800F083
:100AF00039FC00940020ADF80400ADF80600ADF814
:100B00000800ADF80C000C20ADF80A006946224838
:100B100000F08BFF0121204801F013F8012240F280
:100B200025511D4801F019F827208DF814000220E6
:100B30008DF8150003208DF8160001208DF81700A0
:100B400005A800F046FB00201449088006B010BD3F
:100B50000FB438B505A800901348009A049907F01F
:100B600015FB00200090104806F07CFF85B20024A1
:100B70000DE000BF4021084801F0BEF80028F9D080
:100B80000948015D044801F049F8601C84B2AC4298
:100B9000EFDB38BC5DF814FB004800401800002073
:100BA000CE060020000C01402609002008B50121D6
:100BB000042000F093FE0120ADF8000048208DF8DD
:100BC00003006946094800F0CDFB08BD10B50121BE
:100BD000064800F05AFC30B90121044800F055FCE9
:100BE00008B9012010BD0020FCE70000000801400A
:100BF00070B5044600253948008800F4004058B11B
:100C0000002036490988C1F30E01354A5054214667
:100C1000104606F015FF0546284670BD00E0401E50
:100C20000028FCDA70472DE9F04105460E461446CF
:100C3000002700202949088029462AA0FFF788FFBD
:100C4000BEB1B4B10FE042F21070FFF7E7FF2348E6
:100C5000008800F4004030B1314624A007F086FA45
:100C600000201E490880601E80B2041EEBD104B92A
:100C700001273846BDE8F08110B502F0C7F91EA083
:100C8000FFF766FF4CF25030FFF7C8FF1CA0FFF7DC
:100C90005FFF1F48FFF7C2FF1EA0FFF759FF1C4868
:100CA000FFF7BCFF23A0FFF753FF4CF25030FFF7D4
:100CB000B5FF24A0FFF74CFF1548FFF7AFFF2BA0AF
:100CC000FFF746FF1248FFF7A9FF2CA0FFF740FFF0
:100CD0000F48FFF7A3FF02F0DEF910BD1800002057
:100CE000CE06002025730D0A0000000061636B3AF8
:100CF00025730D0A0000000041540D0A0000000099
:100D000041542B43574D4F44453D320D0A000000DE
:100D100020A1070041542B43575341503D225959BC
:100D2000222C31323334353637382C312C340D0AFD
:100D30000000000041542B4349504D55583D300DA3
:100D40000A00000041542B43495053544152543D32
:100D500022544350222C223139322E3136382E344F
:100D60002E32222C383038360D0A000041542B43E5
:100D700049504D4F44453D310D0A000041542B432D
:100D8000495053454E440D0A0000000030B589B06B
:100D900005460C460121022000F0ADFD012109208D
:100DA00000F09CFD01211A4800F0ADFB2020ADF8B9
:100DB000200018208DF8230003208DF8220008A9B8
:100DC000144800F0CFFAADF81850ADF814400020E8
:100DD000ADF81A00ADF8160005A90F4801F048F962
:100DE0007020ADF804000120ADF806000020ADF839
:100DF0000C0001A9084801F0BAF90821064801F0E1
:100E0000CCFD0121044801F08FFC09B030BD000089
:100E100000081A00000C0140000400403E48006831
:100E2000401C3D49086070473B48006870470020FF
:100E30003949086070471FB50121042000F04EFDBC
:100E40000420ADF80C0003208DF80E0010208DF862
:100E50000F0003A9314800F085FA002030490860EE
:100E60000820ADF80C0004208DF80F0003A92B48D2
:100E700000F078FA4FF4A06000F0A6F909208DF890
:100E8000080000208DF8090001208DF80A008DF877
:100E90000B0002A800F09DF90321002000F078FB70
:100EA000082000908DF8050000208DF80400012036
:100EB0008DF80600684600F087FF1FBD10B50120C1
:100EC00017490860142000F073F800201549C1F894
:100ED000880110BD2DE9F047044600BF4FF4AA7108
:100EE00004FB01F006F094FF824606F096FF0746E9
:100EF00000220D4B06F014FF054606F0B9FF8146AF
:100F00004846BDE8F08710B5082000F0C3FF10B1D7
:100F1000082000F0D0FF10BD1C0000200008014098
:100F2000880121420000214200409F4010B502F09C
:100F30006DF810BD10B502F0AEF810BD10B5044646
:100F4000204603F0BBFF10BD10B53F4800780128D4
:100F500007D102F008F8FFF769FD02F04AF902F044
:100F60001DF810BD10B56FF0040000F07CF9374893
:100F700000683749B0FBF1F0364908703348006823
:100F80003349B0FBF1F441F2883044430520324943
:100F900008804FF0E020006940F002004FF0E021AF
:100FA000086108464461006940F00100086110BD15
:100FB0002DE9F047074600264FF0E020D0F81490C6
:100FC0002448007807FB00F800BFFFF7AFFF4FF0A1
:100FD000E020856911E04FF0E0208469AC420CD03C
:100FE000AC4202D2281B064403E0A9EB04002844CB
:100FF00006442546464500D300E0ECE700BFFFF776
:1010000099FFBDE8F08770B504460F480078A0B19D
:101010001248007888B910480088844206DB0E48E0
:10102000008894FBF0F52846FFF788FF0A480088FF
:1010300094FBF0F100FB114084B24FF47A7104FB91
:1010400001F0FFF7B5FF70BD620000200000002036
:1010500000127A002000002022000020550000200D
:1010600000BF4C4A128802F04002002AF9D0C2B2F6
:10107000484B1B1D1A80704710B586B004460121ED
:1010800044F2040000F02AFC4FF40070ADF81400A4
:1010900003208DF8160018208DF8170005A93E488A
:1010A00000F060F94FF48060ADF8140004208DF872
:1010B000170005A9384800F055F925208DF80000E3
:1010C00003208DF801008DF8020001208DF8030047
:1010D000684600F07EF801940020ADF80800ADF8F5
:1010E0000A00ADF80C00ADF810000C20ADF80E00B1
:1010F00001A9284800F099FC012240F22551254819
:1011000000F02BFD0121234800F01BFD06B010BDAF
:1011100010B501F028FF40F225511E4800F002FEF4
:1011200010B31C4800F07EFDC4B21C48008800F4D7
:101130000040C8B91948008800F4804060B10A2C0A
:1011400003D000201549088020E01448008840F4AE
:1011500000401249088019E00D2C06D10F48008884
:1011600040F480400D49088010E00C480088C0F32E
:101170000D000B490C5409480088401C07490880A1
:1011800008460088C72801DD0020088001F006FF1E
:1011900010BD00000038014000080140240000207C
:1011A0007E0B00200648804706480047FEE7FEE722
:1011B000FEE7FEE7FEE7FEE7FEE7FEE7FEE7FEE707
:1011C000DB030008ED00000831490143314A11609A
:1011D000704770B5002100230F22C47804B32D4C52
:1011E000246804F4E064C4F5E064210AC1F1040356
:1011F000CA40447804FA03F1847814402143090179
:10120000254C0678A155047804F01F050124AC4054
:1012100005786D11AD0005F1E025C5F8004109E044
:10122000047804F01F050124AC401C4D06787611AB
:1012300045F8264070BD1A4A0A400243154B1B1F51
:101240001A60704739B1134A121D12680243114BDC
:101250001B1D1A6006E00F4A121D126882430D4BD7
:101260001B1D1A607047042808D14FF0E02109695E
:1012700041F004014FF0E022116107E04FF0E0215E
:10128000096921F004014FF0E0221161704700006C
:101290000000FA050CED00E000E400E080E100E071
:1012A00080FFFF1F10B50446CC48844208D10121BD
:1012B000042000F02DFB0021042000F029FB46E073
:1012C000C748844208D10121082000F021FB0021F9
:1012D000082000F01DFB3AE0C248844208D10121F9
:1012E000102000F015FB0021102000F011FB2EE073
:1012F000BD48844208D10121202000F009FB0021D3
:10130000202000F005FB22E0B848844208D10121EA
:10131000402000F0FDFA0021402000F0F9FA16E02C
:10132000B348844208D10121802000F0F1FA002165
:10133000802000F0EDFA0AE0AE48844207D1012196
:10134000801500F0E5FA0021A01500F0E1FA10BDCB
:1013500010B50121084600F0DBFA0021012000F061
:10136000D7FA10BD2DE9F0410246002500260020E5
:1013700000230024002791F803C00CF00F0591F81A
:1013800003C00CF0100CBCF1000F03D091F802C0A8
:101390004CEA050591F800C0BCF1000F31D014688B
:1013A00000202BE04FF0010C0CFA00F3B1F800C064
:1013B0000CEA03069E4220D183004FF00F0C0CFA7A
:1013C00003F7BC4305FA03FC4CEA040491F803C09C
:1013D000BCF1280F06D14FF0010C0CFA00FCC2F84A
:1013E00014C00AE091F803C0BCF1480F05D14FF0DA
:1013F000010C0CFA00FCC2F810C0401C0828D1D324
:101400001460B1F800C0BCF1FF0F34DD5468002057
:101410002EE000F1080C4FF0010808FA0CF3B1F8C7
:1014200000C00CEA03069E4221D183004FF00F0C4E
:101430000CFA03F7BC4305FA03FC4CEA040491F8E8
:1014400003C0BCF1280F05D100F1080C08FA0CF814
:10145000C2F8148091F803C0BCF1480F07D100F125
:10146000080C4FF0010808FA0CF8C2F81080401C74
:101470000828CED35460BDE8F0814FF6FF7101809B
:10148000022181700421C1707047024600209368D8
:101490000B400BB1012000E0002070470146886836
:1014A00080B2704702460020D3680B400BB1012088
:1014B00000E0002070470146C86880B270470161B3
:1014C0007047416170470AB1016100E041617047B6
:1014D000C16070474FF480320A438261816182614A
:1014E00082698269704702460020434B18684FF6B4
:1014F0008073184040EA021008433F4B1860704761
:101500003E49C8617047F0B50A4600230024002117
:10151000002500F00046B6F1004F02D1364EF169C9
:1015200001E0354E7168C0F3034583B200F4401604
:10153000B6F5401F08D121F070612F4E766826F075
:1015400070662D4F7E6012E000F48016B6F5801FA5
:1015500006D1032606FA05F4A14341F0706106E0C6
:10156000460D360103FA06F6B14341F0706122B12F
:10157000460D360103FA06F6314300F00046B6F197
:10158000004F02D11C4EF16101E01B4E7160F0BDB5
:1015900030B500228B071C0F0F2303FA04F2164B01
:1015A00008338C1053F824309343134C08348D10B7
:1015B00044F8253023468C1053F824308C07240F30
:1015C00000FA04F423430C4C08348D1044F8253001
:1015D00030BD0A49DC310860704700000008014056
:1015E000000C0140001001400014014000180140AF
:1015F000001C01400020014000000140000020428A
:10160000DF48006840F00100DD4908600846406896
:10161000DC490840DA49486008460068DA49084071
:10162000D74908600846006820F480200860084612
:10163000406820F4FE0048604FF41F008860704747
:10164000CF49096821F48031CD4A116011460968FB
:1016500021F480211160B0F5803F03D0B0F5802FD8
:101660000ED106E0C649096841F48031C44A1160D0
:1016700007E0C349096841F4A021C14A116000E0B4
:1016800000BF00BF704710B50146002200230020B4
:101690004A11012A02D1BA4C236806E0022A02D17B
:1016A000B74C236A01E0B64C636A01F01F020124C3
:1016B00094401C400CB1012000E0002010BD38B562
:1016C000002000900024002500BF3120FFF7DBFF41
:1016D00005460098401C00900098B0F5A06F01D01E
:1016E000002DF2D03120FFF7CEFF08B1012400E039
:1016F0000024204638BD01460020A14A106820F091
:10170000F80040EAC10010607047A04908607047C7
:10171000024600209A4B586820F47C1042EA0103EC
:101720001843974B586070479849086670470146C0
:101730000020934A506820F003000843506070472F
:101740008F48406800F00C007047014600208C4A2A
:10175000506820F0F00008435060704701460020B8
:10176000874A506820F4E0600843506070470146A3
:101770000020834A506820F4605040EAC100506065
:10178000704729B17E4A527A02437D4B5A7204E077
:101790007B4A527A82437A4B5A7270477B49D831DE
:1017A0000860704701460020754A506820F44040A8
:1017B0000843506070470021714A20321170704A0E
:1017C00082F82010012802D004280AD104E0012167
:1017D0006B4A2032117005E00521694A20321170F0
:1017E00000E000BF00BF7047694908607047644966
:1017F000096A0143624A11627047654944390860C9
:10180000704730B500210022002400235C4D6D6834
:1018100005F00C0121B1042905D0082923D105E0E8
:101820005C4D056022E05B4D05601FE0544D6D6826
:1018300005F47012524D6D6805F48034022505EBF5
:1018400092421CB9544D554305600BE04C4D6D68F8
:1018500005F400351DB1504D5543056002E04D4D76
:101860005543056002E04B4D056000BF00BF444D8D
:101870006D6805F0F0010909484D6B5C0568DD40B5
:1018800045603F4D6D6805F4E061090A434D6B5CAE
:101890004568DD4085603A4D6D6805F46051C90AC0
:1018A0003E4D6B5C4568DD40C560354D6D6805F4A7
:1018B0004041890B3A4D6B5CC568B5FBF3F505619A
:1018C00030BD29B12E4A526902432D4B5A6104E0C2
:1018D0002B4A526982432A4B5A61704729B1284AE0
:1018E00092690243264B9A6104E0254A9269824339
:1018F000234B9A61704729B1214AD2690243204B98
:10190000DA6104E01E4AD26982431D4BDA617047F6
:1019100029B11B4AD2680243194BDA6004E0184A25
:10192000D2688243164BDA60704729B1144A1269B3
:101930000243134B1A6104E0114A12698243104BAF
:101940001A61704712494039086070470F49C864EE
:1019500070470B49C87170470948406A40F0807071
:1019600007494862704701460020054A92680A40CC
:101970000AB1012000E000207047014988727047D9
:10198000001002400000FFF8FFFFF6FE0000424298
:101990008004424200127A0000093D002600002027
:1019A0003600002010B50446FB48844209D10121CD
:1019B0008803FFF7ADFF00214FF48040FFF7A8FF39
:1019C00032E0F648844209D101214804FFF7ADFF17
:1019D00000214FF40030FFF7A8FF25E0F0488442D3
:1019E00009D101218804FFF7A0FF00214FF48020D6
:1019F000FFF79BFF18E0EB48844209D10121C8049E
:101A0000FFF793FF00214FF40020FFF78EFF0BE05C
:101A1000E548844208D101210805FFF786FF00212F
:101A20004FF48010FFF781FF10BD2DE9F04786B01D
:101A300005460E460024A24600BFA1460027B089F5
:101A400000B100BF2F462C8A4CF6FF700440F0888E
:101A500004432C82AC894EF6F3100440B0883189DF
:101A60000843718908430443AC81AC8A4FF6FF40B8
:101A70000440B0890443AC8201A8FFF7C2FEC64807
:101A8000874202D1DDF810A001E0DDF80CA0A889A2
:101A900000F4004040B10AEBCA0000EB0A103168C4
:101AA0004900B0FBF1F807E00AEBCA0000EB0A10AE
:101AB00031688900B0FBF1F86420B8FBF0F0040154
:101AC0002009642101FB1089A88900F4004040B17D
:101AD000322000EBC900B0FBF1F000F00700044336
:101AE00008E0322000EB09106421B0FBF1F000F0B7
:101AF0000F0004432C8106B0BDE8F0874FF4165167
:101B0000016000218180C18001810C21418100217F
:101B10008181704710B502460020108A4FF2FF0302
:101B200018400B884C8823438C882343CC8823435C
:101B30001843108210BD0021018041808180C18046
:101B4000704721B1828942F40052828104E0828987
:101B50004DF6FF731A4082817047F0B503460024AA
:101B600000260025002040F66A17B94200D100BFC8
:101B70001846C1F3421401F01F06012707FA06F5C3
:101B8000012C01D10C3004E0022C01D1103000E016
:101B900014301AB107682F43076002E00768AF43AB
:101BA0000760F0BD1AB1838A0B43838202E0838A07
:101BB0008B4383827047028A4FF6F0731A40028289
:101BC000028A0A430282704782894FF2FF731A40E9
:101BD000828182890A438281704721B1828942F0E1
:101BE0000202828104E082894FF6FD731A408281ED
:101BF0007047028A4FF6DF731A400282028A0A4354
:101C00000282704721B1028A42F48042028204E0DB
:101C1000028A4BF6FF731A4002827047C1F3080232
:101C20008280704701468888C0F308007047818928
:101C300041F0010181817047028BD2B20283028B95
:101C400042EA012202837047028B02F47F42028340
:101C5000028B0A430283704721B1828A42F020023C
:101C6000828204E0828A4FF6DF731A4082827047D4
:101C700021B1828A42F01002828204E0828A4FF609
:101C8000EF731A408282704721B1828A42F00802C3
:101C9000828204E0828A4FF6F7731A40828270478C
:101CA00021B1828942F40042828103E08289C2F339
:101CB0000E028281704721B1828A42F400628282E0
:101CC00004E0828A4FF2FF731A4082827047828A50
:101CD0004FF6FB731A408282828A0A4382827047DF
:101CE00021B1828A42F00202828204E0828A4FF6A7
:101CF000FD731A408282704702460020B1F5007FD2
:101D000000D100BF13880B400BB1012000E0002080
:101D1000704701F40072B2F5007F00D100BFCA43E2
:101D20000280704770B50246002400230025002081
:101D300040F66A16B14200D100BFC1F3421501F06E
:101D40001F03012606FA03F3012D02D196893340C1
:101D500006E0022D02D1168A334001E0968A334014
:101D60000C12012606FA04F41688344013B10CB1A3
:101D7000012000E0002070BD10B50022002340F6D5
:101D80006A14A14200D100BF0A1201249440A3B2F8
:101D9000DC43048010BD00000038014000440040D6
:101DA00000480040004C00400050004000204449E2
:101DB0000860091D0860091D0860091D0860414888
:101DC0003F4914310860704700213D498279002A5B
:101DD0003AD00A46126803689A430B461A600A1DF5
:101DE000126803689A430B1D1A60027911440A684D
:101DF00003681A430A60324A0832126803689A4339
:101E00002F4B08331A601A1D126803689A432C4B33
:101E10000C331A604279102A0ED11A1F1268036817
:101E20001A43274B08331A601A1D126803681A43B5
:101E3000234B0C331A600DE02149427911440A68A2
:101E400003681A430A6005E0027911440A680368CE
:101E50009A430A6070470021016001710C214171B1
:101E60000021817170471649103109680143144AF5
:101E700010321160704701460020114A1432126876
:101E80000A400AB1012000E0002070470C491431DB
:101E900008607047014600200022094B1B6803EAD6
:101EA0000102074B14331B680B4013B10AB1012028
:101EB00000E00020704702491431086070470000BC
:101EC00000040140FFFF0F0010B50446FE488442A5
:101ED00008D10121C014FFF71BFD0021E014FFF71A
:101EE00017FDC4E0B4F1804F08D101210846FFF787
:101EF0001CFD00210120FFF718FDB8E0F3488442E3
:101F000008D101210220FFF710FD00210220FFF778
:101F10000CFDACE0EE48844208D101210420FFF71B
:101F200004FD00210420FFF700FDA0E0E948844201
:101F300008D101210820FFF7F8FC00210820FFF755
:101F4000F4FC94E0E448844208D101211020FFF71A
:101F5000ECFC00211020FFF7E8FC88E0DF48844219
:101F600008D101212020FFF7E0FC00212020FFF70D
:101F7000DCFC7CE0DA48844208D101214014FFF700
:101F8000C7FC00216014FFF7C3FC70E0D548844211
:101F900009D10121C804FFF7BBFC00214FF4002048
:101FA000FFF7B6FC63E0D048844209D1012108055F
:101FB000FFF7AEFC00214FF48010FFF7A9FC56E0BC
:101FC000CA48844209D101214805FFF7A1FC00213C
:101FD0004FF40010FFF79CFC49E0C548844208D14B
:101FE00001214020FFF7A1FC00214020FFF79DFCCC
:101FF0003DE0C048844208D101218020FFF795FCD4
:1020000000218020FFF791FC31E0BB48844208D1D9
:1020100001218015FFF789FC0021A015FFF785FC41
:1020200025E0B648844209D101210804FFF770FC7D
:1020300000214FF48030FFF76BFC18E0B048844279
:1020400009D101214804FFF763FC00214FF400305F
:10205000FFF75EFC0BE0AB48844208D10121880405
:10206000FFF756FC00214FF48020FFF751FC10BD14
:1020700000220288944B98420ED0994B98420BD084
:10208000B0F1804F08D0914B984205D0904B9842C8
:1020900002D0904B984204D14FF68F731A404B8870
:1020A0001A438D4B984207D08C4B984204D04FF680
:1020B000FF431A40CB881A4302808B8883850B88A4
:1020C0000385814B98420BD0854B984208D08B4BAF
:1020D000984205D08A4B984202D08A4B984201D14F
:1020E0000B7A038601238382704770B50024002297
:1020F0000023058C4FF6FE7635400584028C8388DC
:10210000048B4FF68F752C40B51E2C400D882C4348
:10211000751E2A400D892A434D882A436A4DA842DC
:102120000BD06F4DA84208D0744DA84205D0744D15
:10213000A84202D0734DA84213D14FF6F7752A403A
:102140004D892A434FF6FB752A408D882A434FF666
:10215000FF652B404FF6FF552B408D892B43CD89D2
:102160002B4383800483CD888586028470BD70B53F
:10217000002400220023058C4FF6EF7635400584BD
:10218000028C8388048B48F6FF752C404FF6FF4580
:102190002C400D884FF6FF7606EA05252C434FF6B6
:1021A000DF752A400D8906EA05152A434D8806EA9F
:1021B00005152A43444DA84202D0494DA8421DD1DD
:1021C0004FF67F752A404D894FF6FF7606EA0515D2
:1021D0002A434FF6BF752A408D8806EA05152A4323
:1021E0004FF6FF352B404FF2FF752B408D8906EAE5
:1021F00085052B43CD8906EA85052B43838004831F
:10220000CD880587028470BD70B5002400220023AC
:10221000058C4FF6FF6635400584028C8388848BDD
:102220004FF68F752C404FF6FC752C400D882C43D3
:102230004FF6FF552A400D894FF6FF7606EA052531
:102240002A434D8806EA05252A431F4DA84202D09D
:10225000234DA8421DD14FF2FF752A404D894FF6FC
:10226000FF7606EA05252A434FF6FF352A408D887A
:1022700006EA05252A434EF6FF752B404DF6FF75FD
:102280002B408D8906EA05152B43CD8906EA0515F5
:102290002B4383808483CD888587028470BD70B58D
:1022A000002200230024058C4EF6FF76354005847D
:1022B000038C8488828B48F6FF752A404FF6FF45D1
:1022C0002A400D8820E00000002C0140000400405E
:1022D00000080040000C00400010004000140040C6
:1022E00000340140004C01400050014000540140C6
:1022F00000180040001C0040002000400040014049
:1023000000440140004801404FF6FF7606EA0525EB
:102310002A434DF6FF752B400D8906EA05352B4300
:102320004D8806EA05352B43FA4DA84202D0FA4DF6
:10233000A84208D14BF6FF752C408D894FF6FF76E9
:1023400006EA85152C4384808283CD88A0F840500E
:10235000038470BD828B4FF2FF331A408283828BDD
:102360004FF6FF7303EA01231A4382837047F0B5E7
:102370000C461546002200210026078C4EF6FF7CF5
:1023800007EA0C070784828B018C4FF6FF7707EA78
:10239000043640F6FF473A404FF6FF7707EA052735
:1023A0003A434FF6FF7707EA03373A43D94FB8422B
:1023B0000ED0D94FB8420BD0B0F1804F08D0D74FD4
:1023C000B84205D0D64FB84202D0D64FB84206D157
:1023D0004DF6FF77394046F48057394305E047F61C
:1023E000FF57394044F48057394382830184F0BD5C
:1023F000828B4FF6F3731A408283828B0A43828367
:102400007047F0B50C461546002200210026078CC7
:102410004FF6FF6C07EA0C070784828B018C4FF69E
:10242000FF7707EA04264FF60C773A404FF6FF771E
:1024300007EA03172F433A43B64FB8420ED0B64FC0
:10244000B8420BD0B0F1804F08D0B44FB84205D09D
:10245000B34FB84202D0B34FB84206D14FF6FF5740
:10246000394046F48077394305E04FF2FF57394051
:1024700044F48077394382830184F0BD028B4FF2AC
:10248000FF331A400283028B4FF6FF7303EA0123E6
:102490001A4302837047F0B50C461546002200210E
:1024A0000026078C4FF6EF7C07EA0C070784028BA7
:1024B000018C4FF6FF7707EA041640F6FF473A40D3
:1024C0004FF6FF7707EA03373A434FF6FF7707EAFD
:1024D00005273A438F4FB8420ED08F4FB8420BD0EA
:1024E000B0F1804F08D08D4FB84205D08C4FB84224
:1024F00002D08C4FB84206D14FF6DF77394046F014
:102500001007394305E04FF65F77394044F0100774
:10251000394302830184F0BD028B4FF6F3731A40F6
:102520000283028B0A4302837047F0B50C461546BE
:1025300000220021068C4FF6FE773E400684028B77
:10254000018C4FF60C7632407E1C06EA03162E43B1
:102550003243704EB0420ED06F4EB0420BD0B0F14D
:10256000804F08D06D4EB04205D06D4EB04202D0C3
:102570006C4EB04206D14FF6FD76314044F0010674
:10258000314305E04FF6F576314044F00106314322
:1025900002830184F0BD70B505460C465D48854256
:1025A0000ED05D4885420BD0B5F1804F08D05B4816
:1025B000854205D05A48854202D05A48854200D10A
:1025C00000E000BF208850B92389A288618828468E
:1025D000FFF7ABFFE1882846FFF79EFF25E0208844
:1025E00004280AD12389A28861882846FFF753FF6F
:1025F000E1882846FFF742FF17E0208808280AD123
:102600002389A28861882846FFF7FBFEE1882846D7
:10261000FFF7EEFE09E02389A28861882846FFF7CC
:10262000A6FEE1882846FFF795FE70BD2DE9F04132
:1026300005460C4600260127608808B9022600E0FE
:102640000026A088012801D1022700E00127208868
:10265000A0B92389A28861882846FFF766FFE18830
:102660002846FFF759FF23893A4631462846FFF7A7
:1026700012FFE1882846FFF701FF13E02389A288B3
:1026800061882846FFF707FFE1882846FFF7F6FE36
:1026900023893A4631462846FFF747FFE188284616
:1026A000FFF73AFFBDE8F0810A884B881A438B8810
:1026B0001A43CB881A430B891A434B891A438B89D7
:1026C0001A43A0F8442070474FF6FF718180002123
:1026D0000180C180418001727047002101804180EA
:1026E0008180C180018141818181C1817047002148
:1026F00001804180012181800021C18001817047DA
:102700000021018041808180C180018141818181DE
:1027100070470000002C01400034014000040040DC
:1027200000080040000C004021B1028842F0010284
:10273000028004E002884FF6FE731A400280704760
:1027400031B1B0F8442042F40042A0F8442005E042
:10275000B0F84420C2F30E02A0F8442070471AB12A
:1027600083890B43838102E083898B438381704794
:102770008182704741EA0203A0F8483070471AB1DD
:1027800083890B43838102E083898B438381704774
:1027900001894FF6F8721140018170470A46002105
:1027A00001894FF68F73194011430181704730B58D
:1027B00004460D4629462046FFF7F0FF208940F0E9
:1027C0000700208130BD2DE9F04104460D46164634
:1027D0001F46602D06D13B46012231462046FFF7B9
:1027E0005AFE05E03B46012231462046FFF79DFE9A
:1027F00029462046FFF7D2FF208940F007002081BC
:10280000BDE8F08130B50C4600210189C9B24FF610
:10281000FF7505EA0325154325432943018130BD92
:102820002DE9F04105460E461746984600244346DA
:102830003A4631462846FFF7E5FF2C894FF6F870F7
:10284000044044F007044FF68F70044044F07004D5
:102850002C81BDE8F081F0B504460D4616461F46B2
:102860003B46324629462046FFF7CCFF208940F4FC
:1028700080402081F0BD0185828270470A46002198
:1028800001884FF68F731940114301807047F0B5EE
:102890000C4615461E460021002200230189028BAA
:1028A000038C4FF6F877394021434FF6FC473A4006
:1028B00040F201173A434FF6DD773B404FF6FF7782
:1028C00007EA06172F433B43018102830384F0BDCF
:1028D0000A460021018B4FF68F7319401143018383
:1028E00070470A460021018B48F6FF7319404FF6E6
:1028F000FF7303EA02231943018370470A4600214C
:10290000818B4FF68F7319401143818370470A46BC
:102910000021818B48F6FF7319404FF6FF7303EADD
:10292000022319438183704721B1028842F080025B
:10293000028004E002884FF67F731A4002807047DD
:1029400021B1828842F00402828004E082884FF63E
:10295000FB731A408280704721B1828842F00802DE
:10296000828004E082884FF6F7731A4082807047B5
:1029700021B1828842F00102828004E082884FF611
:10298000FE731A40828070470A460021018B4FF681
:10299000F77319401143018370470A460021018BE8
:1029A0004FF2FF7319404FF6FF7303EA02231943F6
:1029B000018370470A460021818B4FF6F773194057
:1029C0001143818370470A460021818B4FF2FF73C8
:1029D00019404FF6FF7303EA0223194381837047BE
:1029E0000A460021018B4FF6FB7319401143018306
:1029F00070470A460021018B4FF6FF3319404FF60E
:102A0000FF7303EA02231943018370470A4600213A
:102A1000818B4FF6FB7319401143818370470A463F
:102A20000021818B4FF6FF3319404FF6FF7303EA05
:102A300002231943818370470A460021018B4FF618
:102A40007F7319401143018370470A460021018BAF
:102A5000C1F30E014FF6FF7303EA0223194301830A
:102A600070470A460021818B4FF67F73194011434E
:102A7000818370470A460021818BC1F30E014FF616
:102A8000FF7303EA02231943818370470A4600213A
:102A9000018C4FF6FD7319401143018470470A46BB
:102AA0000021018C4FF6F7731940114301847047E0
:102AB0000A460021018C4FF6DF7319404FF6FF7371
:102AC00003EA02131943018470470A460021018C6E
:102AD0004FF67F7319404FF6FF7303EA0213194351
:102AE000018470470A460021018C4FF6FF531940BC
:102AF0004FF6FF7303EA02231943018470470A4625
:102B00000021018C4FF2FF7319404FF6FF7303EA67
:102B100002231943018470470A460021018C4DF6B7
:102B2000FF7319404FF6FF7303EA02331943018420
:102B3000704730B5002301248C40A3B2048C9C4321
:102B40000484048C02FA01F5ADB22C43048430BD38
:102B500030B5002304248C40A3B2048C9C4304842D
:102B6000048C02FA01F5ADB22C43048430BD70B57B
:102B70000346002000241846183001258D40ACB2D1
:102B80001D8CA5431D8409B1082909D100EB610002
:102B9000056825F0700505600568154305600EE0C1
:102BA0000D1FC5F34E052844056825F4E045056072
:102BB00005684FF6FF7606EA02263543056070BDCC
:102BC00021B1028842F00202028004E002884FF63E
:102BD000FD731A400280704721B1028842F004025E
:102BE000028004E002884FF6FB731A4002807047AF
:102BF00021B1828842F08002828004E082884FF610
:102C00007F731A408280704702884FF6F7731A402C
:102C1000028002880A430280704782884FF68F73D1
:102C20001A40828082880A438280704702894FF668
:102C3000F8731A40028102890A43028170470289AF
:102C40004FF67F731A40028102890A43028170475E
:102C500081847047818570478186704701877047FE
:102C600081877047A0F84010704702884FF6FF43F5
:102C70001A40028002880A43028070470146888E0B
:102C800070470146088F70470146888F704701469C
:102C9000B1F8400070470146888C70470146088DA6
:102CA000704702460020138A0B400BB1012000E060
:102CB00000207047CA430282704730B502460020A8
:102CC00000230024158A05EA0103958905EA010419
:102CD00013B10CB1012000E0002030BDCA430282D4
:102CE000704700007CB5002514E06946284601F0D5
:102CF000DBFF064666B9F84850F8254044B1012C80
:102D000006D0D4E9020100EB810060640198A06460
:102D1000681CC5B23F2DE8D97CBD002400BF02E08D
:102D2000282002F0CBF8ED4800780028F8D0EC48D5
:102D300000686421B0FBF1F0E949086008460068CA
:102D400028B90020E7490870FF2001F0EFFF00BF1D
:102D500002F0A6FC0446E4480068E449086000204C
:102D6000E1490860204602F09FFCE0480068DC4929
:102D70000968B0FBF1F0C0F16400DA49087002F0B4
:102D8000F1FCFFF7AFFF142002F098F8E0E700B580
:102D900087B0032000218022D54BCDE90132CDE957
:102DA00003104FF6FE703E23D24A0090AFF295001A
:102DB00001F093FD06AAD0A13E2001F0F7FE07B076
:102DC00000BD002400BF00BF02F06AFC0446C648F4
:102DD0000068401CC4490860204602F065FC02F00F
:102DE000C0FCF1E700B587B0032000218022C64B6C
:102DF000CDE90132CDE903104FF6FF703F23C34AFE
:102E00000090AFF2410001F068FD06AAC0A13F208A
:102E100001F0CCFE07B000BD04E0002200F8012B59
:102E20004A1E91B20029F8D1704770B5C821BC483C
:102E3000FFF7F2FF00230FE0581C85B203EB83007D
:102E4000B74901EB800405EB850001EB800600200B
:102E500020706660581C83B2092BEDD303EB83000E
:102E6000AF4901EB80040020207060600846AD4946
:102E7000086070BD70B54FF47C71AB48FFF7CCFFB4
:102E80004FF480719448FFF7C7FF002413E0601CE3
:102E9000C5B2C4EBC40000EB4000A34901EB8003C2
:102EA000C5EBC50000EB400001EB80065E619FA012
:102EB000D864601CC4B20B2CE9D3C4EBC40000EB93
:102EC0004000994901EB80030020586197A0D86425
:102ED00000209749086094489649086070BD002119
:102EE000954A1170002004E00021944A1154411CBD
:102EF000C8B20828F8D30021914A1170914A117084
:102F0000914A1160914A1160704700209049086011
:102F1000904908709049087090490870904908706D
:102F20009049086070490860704908606C49086001
:102F30006A490870704710B502F00CFCFFF7E5FF16
:102F4000FFF7CDFFFFF796FFFFF76FFF00F0ECFEF6
:102F500001F0E3F9FFF746FFFFF719FF02F034FB3A
:102F600002F0FCFB10BD7E480078012808D17948AA
:102F70000078FF2804D277480078401C7549087013
:102F8000704779496C4A1278885C6C49095C764ACA
:102F9000515C01EBC0016B4A1170704710B5002401
:102FA0006F480078012830D102F07AFB0446694866
:102FB000007820B167480078401E6649087065486F
:102FC0000078F8B964480078E0B9FFF7DAFF4248C2
:102FD0005C49097850F821005B490860594800783D
:102FE0005749097888420DD057480068806B401CCB
:102FF0005549096888635B480068401C5949086066
:1030000002F06DFB204602F04FFB10BD10B500240E
:1030100053480078012811D102F042FB04464D4884
:10302000007840B94C480078FF2804D24A4800781C
:10303000401C49490870204602F036FB10BD10B50F
:10304000002402F02DFB044642480078F8B94248BB
:103050000078E0B9FFF795FF1F483A49097850F822
:103060002100394908603748007835490978884295
:103070000DD035480068806B401C3349096888636F
:1030800038480068401C3749086002F021FB2046A0
:1030900002F00AFB10BD10B5002431480078012869
:1030A0006FD102F0FDFA04462B48007880B12A481F
:1030B0000078401E284908700846007848B925481D
:1030C000007838B9204602F0EFFAFFF7B8FF58E071
:1030D00054E04FE04AE0000060110020540000205E
:1030E0004C00002048000020640000205000002018
:1030F000600D00205C0F002075432F4F532D494970
:103100002053746174000000600F00205C110020E7
:1031100075432F4F532D49492049646C65000000C9
:10312000480C002040000020601200203F000000FA
:10313000740000206C000020590000205A0000207C
:103140005700002058000020700000206800002078
:103150008000002055000020560000206300002061
:10316000620000203C0000206C8A0008204602F02B
:103170009BFA06E0204602F097FA02E0204602F0B1
:1031800093FA10BD10B5EB48007890B9FFF7F9FE3F
:10319000E9480078E9490870E948E749097850F8B2
:1031A0002100E849086008460068E749086002F025
:1031B0007EFA10BD10B50024022001F07FFE02F05F
:1031C0006FFA04460020E1490860204602F06CFADC
:1031D000142001F073FE02F063FA0446DB48006835
:1031E000DB4908600120DB490870204602F05CFAE8
:1031F00010BD70B5002602F005FB02F051FA06463C
:10320000D5480068401CD4490860304602F04CFAAA
:10321000C8480078012853D1D048007820B101284F
:1032200004D0022809D103E001250BE0002509E0C4
:1032300001250120C949087004E001250020C74983
:10324000087000BF00BF05B970BDC548046833E011
:1032500002F026FA0646E06A50B3E06A401EE062D9
:10326000E06A28BB94F8300000F0370040B114F851
:10327000300F00F0C800207001206070303C02E088
:10328000002084F8310094F8300000F0080078B98C
:103290003434A078B34909780843B24908702078DB
:1032A000B149085C6178084314F83419AE4A5054A7
:1032B0006469304602F0F8F994F832003F28C7D12B
:1032C00000BFC1E740F223107047704710B590F877
:1032D000342001F10B039B5C90F83540A34301F1CE
:1032E0000B04A35423469B5C23B98B7A90F8364099
:1032F000A3438B7210BD2DE9F04F05460F46904653
:103300009946A87A99490E5C05F10B00805D11F889
:1033100000B00BEBC60000F0FF0A894850F82A40C5
:1033200000202034E0602760207C20EA0800207420
:1033300084F81190207C203C00F0080068B994F8D3
:103340003600884909780843864908708648805DB8
:1033500094F8351008438449885529462046FFF7DC
:10336000B5FF5046BDE8F08F10B5774A1268D061BE
:10337000754A126892F8343000F10B02D25C724B3D
:103380001B6893F835301A436F4B1B6893F8344031
:1033900000F10B031A55827A6B4B1B6893F8363099
:1033A0001A438272684A126892F834106E4A525C6C
:1033B000654B1B6893F835309A436B4B5A541A4649
:1033C000525C42B9604A126892F83630654A127807
:1033D0009A43644B1A7010BD014600228A72002085
:1033E00005E0002301F10B021354421CD0B208285F
:1033F000F7D3704705E011F8013B00F8013B531E7D
:103400009AB2002AF7D170470146002002E0491C19
:10341000421CD0B20A78002AF9D170472DE9F84F42
:1034200005460F4690469946DDE90AAB002000901C
:1034300002F036F900904E480468002C75D018341C
:1034400054F8040C4A490860009802F02DF944F839
:10345000187CA576002020766076606144F814BC64
:1034600044F80CAC44F8108C0C9824F8080C24F8A0
:10347000069C0020E077E810207705F00700E07652
:10348000217F01208840A077E17E0120884060777D
:1034900000206060E060A0602062A0626062E06284
:1034A0002063AFF278306063183C002606E000210C
:1034B00004F1500040F82610701CC6B2002EF6D061
:1034C000204602F09EF9204602F049F902F0E8F8A1
:1034D00000901B4840F825402148006860610020AA
:1034E000A0611F48006810B11D48006884611C4835
:1034F00004603434A0781B490978084319490870DE
:1035000020781949085C6178084314F83419164A80
:10351000505418480078401C16490870009802F072
:10352000C3F80020BDE8F88FFFE7009802F0BCF870
:103530004220F7E7620000205800002057000020DA
:10354000601100207000002068000020640000204E
:103550004C00002054000020800000207800002053
:1035600074000020590000205A0000206C8A0008D6
:103570006C000020630000202DE9F05F04460F4638
:1035800091461E464FF0000B2078052804D00120FC
:1035900030700020BDE8F09F09F0800ABAF1000FFA
:1035A00004D029F080094FF0010801E04FF0000835
:1035B0000020307002F074F88346B9F1000F2CD06F
:1035C000B9F1010F3BD0B9F1020F03D0B9F1030FEC
:1035D00046D111E0208900EA0705BD4206D1B8F1C5
:1035E000010F05D12089A843208101E070203070AF
:1035F000584602F059F83AE0208900EA070535B14B
:10360000B8F1010F05D12089A843208101E0702085
:103610003070584602F048F829E0208927EA000572
:10362000BD4206D1B8F1010F05D120892843208180
:1036300001E070203070584602F036F817E020891B
:1036400027EA000535B1B8F1010F05D120892843DB
:10365000208101E070203070584602F025F806E025
:10366000584602F021F800256F20307000BF00BFDF
:1036700028468FE72DE9F04106460D460027FA4817
:10368000007820B1102028700020BDE8F08102F001
:1036900007F80746F548046884B100684068F349B4
:1036A000086005202070268100206060F0A0E060A6
:1036B000384601F0F9FF0020287004E0384601F098
:1036C000F3FF722028702046DFE730B501464A68D4
:1036D00008682AB9CC68606028B10025456002E01E
:1036E000106000B142608B6800255D6230BDF0B5AE
:1036F00006460F46B4680020283460602780207A90
:1037000000F0DF00207200206072207A283C88B927
:103710003434A078D74909780843D649087020780E
:10372000D549085C6178084314F83419D24A5054DA
:10373000012500E000253046FFF7C7FF2846F0BD11
:103740002DE9F0470446894615464FF0000AC64861
:10375000007820B10F2028702046BDE8F08720783F
:10376000052803D0012028702046F6E701F098FFD5
:103770008246606808B1012700E00027B9F1000F18
:1037800003D0B9F1010F3CD119E08FB9B8A0E060C6
:1037900000202070B5480068606000202081B34898
:1037A0000460504601F080FF00202870002605E0EC
:1037B000504601F079FF49202870264628E0D4F8C9
:1037C000048005E000214046FFF791FFD8F8008013
:1037D000B8F1000FF6D1A6A0E06000202070A34849
:1037E0000068606000202081A0480460504601F01D
:1037F0005BFF012F01D1FFF722FC0020287000267B
:1038000006E0504601F050FF07202870264600BF12
:1038100000BF3046A1E72DE9F04105460E461446AB
:1038200000279148007820B1112020700020BDE8C9
:10383000F08101F035FF07462878052806D0384684
:1038400001F032FF012020700020F0E7E8683060CE
:103850003068FFF7D9FD8046384601F025FF00208B
:1038600020704046E3E72DE9F04105460E46144638
:1038700000277D48007818B112202070BDE8F08143
:1038800001F00EFF07462878052805D0384601F0DC
:103890000BFF01202070F1E7EE60384601F004FFD5
:1038A0000020207000BFE9E7F0B51446059E734F75
:1038B0003F6897F8307047F02007DFF8C0C1DCF8A8
:1038C00000C08CF830700027DFF8B0C1DCF800C011
:1038D0008CF83170694F3F68FE62684F3F687962CB
:1038E0000C828B74654F3F688F6047680F600027BC
:1038F0004F60C860456805B1696041605F4F3F68CF
:1039000097F834205C4FBF5CDFF870C1DCF800C072
:103910009CF835C027EA0C07DFF85CC10CF8027090
:103920006746BF5C5FB9554F3F6897F836C0514F47
:103930003F7827EA0C07DFF83CC18CF80070F0BD37
:103940002DE9F04F89B005460F4691469A46129EE2
:10395000002002904448007828B1022030700020F6
:1039600009B0BDE8F08F4648007818B10D203070DE
:103970000020F5E72878052803D0012030700020CA
:10398000EEE709F0800BBBF1000F04D009F07F09CE
:103990004FF0010801E04FF0000801F081FE0290B5
:1039A000B9F1000F4AD0B9F1010F78D0B9F1020F87
:1039B00003D0B9F1030F71D120E0288900EA070490
:1039C000BC420FD1B8F1010F02D12889A043288150
:1039D0002A4800680485029801F066FE00203070D5
:1039E0002046BDE74B463A4604A92846CDF800A03C
:1039F000FFF75AFF029801F057FE78E0288900EAA5
:103A000007047CB1B8F1010F02D12889A0432881B5
:103A10001A4800680485029801F046FE00203070C4
:103A200020469DE74B463A4604A92846CDF800A01B
:103A3000FFF73AFF029801F037FE58E0288927EA9D
:103A40000004BC421ED1B8F1010F02D128892043E5
:103A500028810A4800680485029801F025FE0020AC
:103A6000307020467CE71AE055000020440000201A
:103A70003F000000590000205A000020680000208C
:103A8000560000204B463A4604A92846CDF800A02F
:103A9000FFF70AFF029801F007FE28E01FE02889DF
:103AA00027EA00047CB1B8F1010F02D12889204334
:103AB0002881B14800680485029801F0F5FD0020D6
:103AC000307020464CE74B463A4604A92846CDF8CC
:103AD00000A0FFF7E9FE029801F0E6FD07E002987A
:103AE00001F0E2FD00246F203070204638E700BF6F
:103AF000FFF7A5FA01F0D4FD02909F48006890F806
:103B0000310020B39C48006890F8310003900020F9
:103B10009949096881F8310004A8FFF7D6FD002013
:103B20009549096881F83000029801F0BDFD002434
:103B30000398012805D0022802D10E20307003E03E
:103B400000BF0A20307000BF00BF204608E78A4847
:103B50000068048DB8F1010F1ED1B9F1000F0ED02D
:103B6000B9F1010F0CD0B9F1020F03D0B9F1030F75
:103B70000AD100E000BF2889A04328810BE000BFE4
:103B800028892043288106E0029801F08DFD6F20EE
:103B900030700020E4E600BF029801F085FD0020AF
:103BA00030702046DCE670B5002501F079FD054651
:103BB00071480068048D284601F076FD204670BDEE
:103BC0002DE9FC5F0446894692461E46002000907F
:103BD0002078052804D0012030700020BDE8FC9F2B
:103BE00001F05EFD0090BAF1000F03D0BAF1010FB1
:103BF0000AD104E0208920EA090020810BE0208915
:103C000040EA0900208106E0009801F04DFD712096
:103C100030700020E2E700BF4FF0000B656855E010
:103C2000A87C40B3012838D0022802D0032844D110
:103C300011E02089298A00EA0107288AB84209D1BF
:103C400039462846FFF753FD8046B8F1010F01D1F0
:103C50004FF0010B38E02089298A00EA01074FB1B3
:103C600039462846FFF743FD8046B8F1010F01D1E0
:103C70004FF0010B28E0288A218920EA0107288AD1
:103C8000B84209D139462846FFF731FD8046B8F1E0
:103C9000010F01D14FF0010B16E0288A218920EA9B
:103CA00001074FB139462846FFF721FD8046B8F19C
:103CB000010F01D14FF0010B06E0009801F0F4FC78
:103CC0006F203070002089E700BF2D68002DA7D13C
:103CD000009801F0E9FCBBF1010F01D1FFF7AFF94A
:103CE00001F0DEFC009020890190009801F0DCFCDE
:103CF00000203070019871E72DE9F04104460D462F
:103D000000272078052804D0012028700020BDE875
:103D1000F08101F0C5FC07462689384601F0C4FC55
:103D2000002028703046F2E72DE9F0415021134879
:103D3000FFF772F800250EE0681C86B20F4800EB12
:103D4000051400EB0617002020706760AFF2E0203A
:103D5000E060681C85B2042DEED3084800EB051422
:103D6000002020706060AFF2F820E0600348044952
:103D70000860BDE8F081000068000020100D002000
:103D8000440000202DE9F04106460D464FF00008A2
:103D90003078022804D0012028700020BDE8F0818E
:103DA00001F07EFC80467468E08A78B12169081DC4
:103DB00020610F68E08A401EE082A1682069884285
:103DC00001D1606820610020287002E01F20287067
:103DD0000027404601F068FC3846DFE72DE9F04156
:103DE00006460F464FF00008F748007810B1002053
:103DF000BDE8F08101F054FC8046F4480568006895
:103E000020B1F24800684068F0490860404601F07F
:103E10004BFC3DB301F044FC8046ED480468C4B15E
:103E200000680068EA490860404601F03DFC6660B1
:103E300006EB8700A060E6602661A7820020E08292
:103E400002202870002028816C602846FFF7C4FA01
:103E500008E0DE4800686860DC480560404601F024
:103E600023FC00252846C3E72DE9F0470446894690
:103E700015464FF0000A2078022804D0012028704F
:103E80002046BDE8F087D048007818B10F20287090
:103E90002046F6E701F004FC8246A07A10B14FF00C
:103EA000010801E04FF00008B9F1000F03D0B9F1AB
:103EB000010F45D11FE0B8F1000F15D16668C44865
:103EC00000683060C248066000202070BF4800686B
:103ED000606000202081BD480460504601F0E4FB92
:103EE00000202870002705E0504601F0DDFB492046
:103EF000287027462BE005E00023042219462046BF
:103F0000FFF7F9F9A07A0028F6D16668B048006892
:103F10003060AF48066000202070AC4800686060E8
:103F200000202081A9480460504601F0BDFBB8F193
:103F3000010F01D1FFF783F800202870002706E069
:103F4000504601F0B1FB07202870274600BF00BF94
:103F5000384696E770B50546002601F0A1FB0646F7
:103F60006C686068E060606820610020E082304634
:103F700001F09AFB002070BD2DE9F0470746884606
:103F800015464FF000093878022804D00120287027
:103F90000020BDE8F0878C48007818B10220287016
:103FA0000020F6E78B48007818B10D20287000201B
:103FB000EFE701F075FB81467C68E08A98B12169E2
:103FC000081D20610E68E08A401EE082A168206919
:103FD000884201D160682061484601F065FB0020FD
:103FE00028703046D5E77C48006890F8300040F0F3
:103FF00004007949096881F8300000207649096891
:1040000081F8310074480068C0F82C803846FFF70A
:10401000ABF9484601F048FBFFF711F801F040FB0F
:1040200081466D48006890F8310020B101280DD01C
:1040300002280AD105E068480068066A0020287056
:104040000DE000260E20287009E000BF39466248C6
:104050000068FFF73BF900260A20287000BF00BF68
:1040600000205D49096881F830005B49096881F8E2
:10407000310059490968C8615749096808624846CA
:1040800001F012FB304684E72DE9F04104460F466B
:1040900015464FF000082078022804D0012028702F
:1040A0000020BDE8F08101F0FBFA8046A07A20B341
:1040B00000267FB1012F0CD107E00223042200214A
:1040C0002046FFF718F9701CC6B2A07A0028F4D178
:1040D00009E000BF0223042200212046FFF70BF96C
:1040E000701CC6B200BF00BF404601F0DDFAFEF70B
:1040F000A6FF0E2028703046D3E7404601F0D4FAE0
:104100000020287000BFCCE72DE9F04105460E469F
:1041100000272878022802D00120BDE8F08101F0B4
:10412000BFFA0746A87A60B1002304223146284628
:10413000FFF7E1F8384601F0B7FAFEF780FF0020FC
:10414000EBE76C68E08AA18A884204DB384601F01C
:10415000ABFA1E20E1E7E168081DE0600E60E08A2E
:10416000401CE082D4E90210884201D16068E0601E
:10417000384601F099FA0020CFE72DE9F0410546D5
:104180000E4600272878022802D00120BDE8F081E1
:1041900001F086FA0746A87A60B10023042231466E
:1041A0002846FFF7A8F8384601F07EFAFEF747FFE9
:1041B0000020EBE76C68E08AA18A88420EDB384673
:1041C00001F072FA1E20E1E75500002040000020B7
:1041D0007C000020560000206800002061682069F3
:1041E000884201D1A06820612069001F20612069F8
:1041F0000660E08A401CE082384601F055FA002053
:10420000C4E72DE9F04105460F4616464FF0000879
:104210002878022802D00120BDE8F08101F040FAA0
:104220008046A87AE8B106F0010050B105E000230D
:10423000042239462846FFF75EF8A87A0028F6D10E
:1042400005E00023042239462846FFF754F840468B
:1042500001F02AFA06F0040008B9FEF7F0FE00208B
:10426000DAE76C68E08AA18A884204DB404601F004
:104270001BFA1E20D0E706F0020058B161682069E1
:10428000884201D1A06820612069001F2061206957
:10429000076009E0E168081DE0600F60D4E90210E2
:1042A000884201D16068E060E08A401CE0824046BC
:1042B00001F0FAF90020AFE72DE9F04705460C467A
:1042C0004FF0000A2878022802D00120BDE8F087CC
:1042D00001F0E6F98246A87A207405F10B0804F192
:1042E0000809002705E018F8010B09F8010B781CF4
:1042F000C7B2082FF7D36E68F08A18B1306900682A
:10430000206001E000202060F08AA080B08AE08078
:10431000504601F0C9F90020D8E72DE9F041782195
:104320001048FEF779FD00240DE0601C86B204EB16
:1043300044000C4901EBC00506EB460001EBC00749
:104340002F60601C84B2042CEFD304EB44000549B9
:1043500001EBC00500202860084603490860BDE85D
:10436000F0810000501600207C00002070B504464B
:1043700000262078032801D0002070BD01F090F9BC
:104380000646258915B12089401E2081304601F05E
:104390008BF92846F1E770B505460026D24800782B
:1043A00008B1002070BD01F07BF90646CF480468D3
:1043B000006820B1CD4800684068CC4908603046AC
:1043C00001F072F93CB1032020702581002060606B
:1043D0002046FFF701F82046E4E72DE9F0470446C0
:1043E000884615464FF000092078032804D00120A4
:1043F00028702046BDE8F087BB48007818B10F2030
:1044000028702046F6E701F04BF98146A07A08B102
:10441000012700E00027B8F1000F03D0B8F1010F29
:1044200035D117E07FB900202070B0480068606087
:1044300000202081AD480460484601F035F9002095
:104440002870002605E0484601F02EF94920287022
:10445000264623E005E00023012219462046FEF708
:104460004AFFA07A0028F6D12070A048006860605A
:10447000002020819D480460484601F015F9012F75
:1044800001D1FEF7DCFD00202870002606E048463A
:1044900001F00AF907202870264600BF00BF304609
:1044A000A8E72DE9F04105460E4614460027287876
:1044B000032803D001202070BDE8F0818A480078ED
:1044C00010B102202070F7E78948007810B10D2064
:1044D0002070F1E701F0E4F80746288940B1288907
:1044E000401E2881384601F0DFF800202070E3E705
:1044F0008048006890F8300040F001007D4909686C
:1045000081F8300000207B49096881F83100794842
:104510000068C6622846FEF727FF384601F0C4F857
:10452000FEF78DFD01F0BCF807467248006890F870
:10453000310020B1012809D0022806D102E0002074
:1045400020700BE00E20207008E000BF294669486B
:104550000068FEF7BBFE0A20207000BF00BF0020ED
:104560006449096881F830006249096881F83100BE
:1045700060490968C861384601F096F800BF9BE7BA
:104580002DE9F04104460F4615464FF0000820780B
:10459000032804D0012028700020BDE8F08101F03C
:1045A0007FF88046A07A20B300267FB1012F0CD17E
:1045B00007E00223012200212046FEF79CFE701C2A
:1045C000C6B2A07A0028F4D109E000BF022301227C
:1045D00000212046FEF78FFE701CC6B200BF00BF50
:1045E000404601F061F8FEF72AFD0E2028703046A3
:1045F000D3E7404601F058F80020287000BFCCE710
:1046000070B5044600252078032801D0012070BD34
:1046100001F046F80546A07A60B100230122194650
:104620002046FEF768FE284601F03EF8FEF707FD3B
:104630000020ECE720894FF6FF71884207D22089DD
:10464000401C2081284601F02FF80020DFE7284693
:1046500001F02AF83320DAE72DE9F04704460D4649
:104660004FF000092078032802D00120BDE8F08730
:1046700001F016F88146A07AA87204F10B0705F143
:104680000208002605E017F8010B08F8010B701C62
:10469000C6B2082EF7D320892880484601F004F8D6
:1046A0000020E3E72DE9F04104460E4615460027B9
:1046B0002078032803D001202870BDE8F08100F0A5
:1046C000EFFF074600202870208908B1268105E009
:1046D000A07A08B9268101E049202870384600F008
:1046E000E3FF00BFE9E70000550000204000002084
:1046F00056000020680000202DE9FF5F81468846B3
:104700000020009000F0CCFF0090F94850F82800FD
:1047100030B1009800F0C8FF282004B0BDE8F09F39
:10472000B9F1FF0F03D1F348006890F83290F048D8
:1047300050F8294024B9009800F0B6FF2920ECE792
:10474000012C04D1009800F0AFFF4320E5E74FEAC9
:10475000E80708F0070003900120B84000F0FF0AC6
:1047600001210398814001F0FF0B0020E04941F84E
:104770002900084640F8284014F8346FA0780290C9
:104780006078343C0190DC48815D01980140D1B1F2
:10479000D948805D01998843D74988550846805D8E
:1047A00028B9D648007802998843D4490870D3487C
:1047B000007840EA0A00D1490870CF48C05D40EA5D
:1047C0000B00CD49C855E569D5B105F10B00805DF9
:1047D0000199884305F10B0188550846805D18B999
:1047E000A87A02998843A872A87A40EA0A00A872B7
:1047F00005F10B00C05D40EA0B0005F10B01C85547
:1048000084F8328084F83470039884F8330084F894
:1048100036A084F835B0009800F046FFB84800781C
:10482000012801D1FEF70BFC002076E72DE9FE4FB1
:1048300006460F4690461C464FF0000900F030FF38
:104840008146B048007828B1484600F02DFF3C2052
:10485000BDE8FE8FA64850F8240060BB0120A449A3
:1048600041F82400484600F01FFF00234246394625
:10487000304600F078FF8246002000900190034609
:104880000246514602902046FEF7C8FD054635B95E
:104890009B48007801280CD1FEF7D1FB09E000F01D
:1048A000FFFE81460020924941F82400484600F06E
:1048B000FBFE2846CCE7484600F0F6FE2820C7E776
:1048C00002F0010343B102F002032BB102E0491EE2
:1048D000002308C00029FAD170472DE9F04F85B0B8
:1048E00081468A4693461C46DDE90F78129D0020DA
:1048F000039000F0D5FE03908248007830B1039811
:1049000000F0D2FE3C2005B0BDE8F08F784850F8AA
:10491000240088BB0120764941F82400039800F068
:10492000C3FE2A4641463846FFF7CAFF2B465A4681
:104930005146484600F017FF04901198CDE90080D9
:1049400002953A4620460E9B0499FEF767FD0646FF
:1049500036B96B48007801280CD1FEF770FB09E0EE
:1049600000F09EFE03900020614941F82400039866
:1049700000F09AFE3046C6E7FFE7039800F094FE89
:104980002820C0E72DE9F041054600275D48007862
:1049900010B14020BDE8F0813F2D01D13E20F9E764
:1049A00000F07EFE0746FF2D03D15248006890F8C4
:1049B00032504F4850F8254024B9384600F074FE74
:1049C0004320E7E7012C04D1384600F06DFE3D207E
:1049D000E0E714F8340F4849085C6178884321788F
:1049E000454A505414F834091146085C30B994F81B
:1049F000361042480078884340490870E06918B191
:104A00002046E169FEF762FC666A16B13046FEF7A1
:104A10005CFE0020E06284F8300084F831003A48FF
:104A20000078FF2804D238480078401C36490870C6
:104A3000384600F039FEFEF748FC00F031FE07462C
:104A40003148007820B130480078401E2E49087067
:104A5000204600F085FE2D480078401E2B49087046
:104A60000020234941F82500A06930B90020616980
:104A7000886127496069086005E0D4E9050148615B
:104A8000D4E905108861234800686061214804600A
:104A900021A0E064384600F007FE1948007801289C
:104AA00001D1FEF7CCFA002074E72DE9F04104466D
:104AB00000273F2C02D13E20BDE8F081FF2C0BD116
:104AC00000F0EEFD07460B48006890F83760384666
:104AD00000F0EAFD3046EFE700F0E2FD074604484B
:104AE00050F82450D5B9384600F0DEFD4320E3E706
:104AF00060110020680000205A00002059000020AA
:104B000062000020550000205600002063000020B5
:104B1000740000206C0000203F000000012D04D133
:104B2000384600F0C1FD3D20C6E73F2085F837003C
:104B3000384600F0B9FD0020BEE72DE9F0470646F3
:104B40000F4614464FF00008D648007820B11120D7
:104B500020700020BDE8F08700F0A2FD8046FF2E07
:104B600003D1D148006890F83260D04850F8265000
:104B700035B9404600F098FD432020700020E9E759
:104B8000012D06D1404600F08FFD4320207000200B
:104B9000E0E7E86C38603868FEF736FC814640464E
:104BA00000F082FD002020704846D3E72DE9F04157
:104BB00006460F4614464FF00008BA48007818B170
:104BC00012202070BDE8F08100F06AFD8046FF2EC3
:104BD00003D1B548006890F83260B44850F82650C8
:104BE0002DB9404600F060FD43202070EAE7012D1A
:104BF00005D1404600F058FD43202070E2E7EF6405
:104C0000404600F051FD0020207000BFDAE770B58B
:104C10000546002600F044FD0646A44850F825400D
:104C200024B9304600F040FD462070BD012C04D16F
:104C3000304600F039FD4320F7E794F8300000F0EB
:104C4000080060B314F8300F00F0F700207014F87B
:104C50003009F8B9E06AC8B93434A07894490978C1
:104C600008439349087020789249085C61780843AA
:104C700014F834198F4A5054304600F015FD8E4810
:104C80000078012809D1FEF7DAF906E0304600F095
:104C90000BFD02E0304600F007FD0020C5E730467E
:104CA00000F002FD4420C0E72DE9F04707460D461D
:104CB0004FF0000A00202860686000F0F1FC824696
:104CC000FF2F03D17848006890F83270774850F889
:104CD00027402CB9504600F0E7FC4320BDE8F087A0
:104CE000012C04D1504600F0DFFC4320F6E7207C85
:104CF00000F0010020B9504600F0D6FC4520EDE759
:104D00000026D4F80C90D4F80880504600F0CCFC73
:104D100000E0761C58F8041B0029FAD0B000286087
:104D2000A9EB0600800068600020D7E72DE9F0417C
:104D300005464FF0000800F0B3FC8046FF2D05D17A
:104D40005948006890F83250012608E0564800683B
:104D500090F83200A84201D1012600E00026534815
:104D600050F825402CB9404600F09EFC4820BDE894
:104D7000F081012C04D1404600F096FC4320F6E778
:104D800094F834704B48C05D94F835108843494915
:104D9000C8550846C05D30B994F8361044480078CC
:104DA00088434349087094F8300040F0080084F8C4
:104DB0003000404600F078FC012E01D1FEF73FF9AB
:104DC0000020D4E72DE9F04105460E46002700F00B
:104DD00067FC0746FF2D03D13348006890F8325036
:104DE000324850F825402CB9384600F05DFC2920A7
:104DF000BDE8F081012C04D1384600F055FC432079
:104E0000F6E7542221463046FEF7F4FA384600F021
:104E10004BFC0020ECE72DE9F04704460E46174610
:104E20004FF0000900F03CFC8146FF2C02D11E48E7
:104E3000056802E01D4850F8245005F1500050F874
:104E40002680484600F030FC002038704046BDE81F
:104E5000F0872DE9F04704460E46174698464FF076
:104E6000000900F01DFC8146FF2C02D10E480568A8
:104E700002E00E4850F8245005F1500040F826702A
:104E8000484600F011FC002088F80000BDE8F087DB
:104E900010B50548006800F0C4FCFF20FFF772FD64
:104EA00010BD0000550000206800002060110020A7
:104EB000590000205A0000206200002070B505460D
:104EC00000266348007800B170BD6248007800B1E8
:104ED000FAE71DB300F0E4FB06465F48006890F86F
:104EE00034405E48005D5C49096891F8351088439C
:104EF0005A4908550846005D40B95748006890F87F
:104F00003610574800788843554908705248006861
:104F1000C562304600F0C8FBFEF791F800BFD3E74A
:104F20002DE9F04104460D4616461F4648480078D4
:104F300010B15520BDE8F0814648007808B1322014
:104F4000F8E7B81CC82148434FF47A71B0FBF1F17F
:104F50004FF461606043C5EB051200EB8200304402
:104F600000EBC00202EB001001EBC0084046FFF767
:104F7000A5FF0020DEE770B5054600263F2D01D3D2
:104F80002A2070BD00F08CFB0646364850F82540BC
:104F900024B9304600F088FB4320F2E7012C04D10D
:104FA000304600F081FB4320EBE7E06A20B9304651
:104FB00000F07AFB5020E4E70020E06294F8300033
:104FC00000F0370040B114F8300F20F037002070A7
:104FD00001206070303C02E0002084F8310094F839
:104FE000300000F00800A8B93434A0781C490978D2
:104FF00008431B49087020781849085C6178084309
:1050000014F83419154A5054304600F04DFBFEF7A1
:1050100016F802E0304600F047FB0020B1E770B51B
:10502000002500F03DFB05460F480468284600F0C7
:105030003BFB204670BD70B50446002500F030FBF8
:10504000054609480460284600F02EFB70BD0000AC
:105050005500002056000020680000205A00002063
:10506000590000206011002080000020FC480068EA
:1050700008B900207047FA480168F94AC86810600A
:105080000020C8600861F7480088401CF54A10807D
:10509000F5480088401EF44A10800846EAE72DE9EA
:1050A000F05F06460F4690469946DDE90AAB0C9D37
:1050B000EE48007820B18B2028700020BDE8F09FDA
:1050C000FDF7A4FFFFF7D2FF04462CB9FDF7E3FF7D
:1050D000862028700020F1E7012084F82500A661D1
:1050E000E76184F82480C4F80490C4F808A0C4F8E8
:1050F00020B0FDF7D0FF002028702046DEE7002119
:1051000080F8251080F82410C16141614160816000
:10511000D7A1016200210161D1490968C160D0496C
:105120000860D0490988491ECE4A1180CE490988B5
:10513000491CCD4A1180704730B5057D05F0070444
:10514000CC4D05EBC4031D68854205D1C1681960CB
:1051500039B100250D6104E00169C268CA6002B17D
:105160001161012580F825500025C56005619D88E5
:105170006D1E9D8030BD70B505460C4628786428AC
:1051800003D089202070002070BDB848007818B185
:105190008B2020700020F7E7FDF738FF95F82500F9
:1051A000D8B101280FD002280ED003281BD12846E1
:1051B000FFF7C2FF2846FFF7A2FFFDF76CFF0020B4
:1051C00020700120E0E700BF2846FFF798FFFDF7B9
:1051D00062FF002020700120D6E7FDF75CFF8720EA
:1051E00020700020D0E7FDF756FF8D2020700020B2
:1051F000CAE72DE9F04105460E4614462878642892
:1052000004D0892020700020BDE8F0819748007804
:1052100018B1112020700020F6E7FDF7F7FE95F891
:10522000250098B1012804D0022803D0032813D107
:1052300000BF00BF286A30603068FEF7E5F8074617
:10524000FDF729FF002020703846DDE7FDF723FF3A
:10525000872020700020D7E7FDF71DFF8D202070EC
:105260000020D1E770B504460D462078642803D0AD
:1052700089202870002070BD7C48007818B18B20F0
:1052800028700020F7E7FDF7C1FE94F8250070B301
:1052900001280DD0022825D003282FD17649606936
:1052A0000968461AFDF7F7FE002028703046E2E74D
:1052B00094F8240001280CD0022809D1A06908B96B
:1052C000E66900E0A669FDF7E6FE0020287006E02A
:1052D00000BFA669FDF7DFFE0020287000BF00BFF9
:1052E0003046C8E7FDF7D7FE00202870C3E7FFE788
:1052F000FDF7D1FE872028700020BCE7FDF7CBFE2C
:105300008D2028700020B6E770B505460C46287839
:10531000642803D089202070002070BD5348007895
:1053200018B18B2020700020F7E7FDF76FFE95F88D
:10533000256036B1012E05D0022E04D0032E06D1F1
:1053400002E000BF00BF00BF0020207002E08D20FF
:10535000207000BF00BFFDF79EFE3046DDE770B550
:105360000B46032580F82550012B05D1424EC56917
:105370003668354445610CE085692DB93E4EC569F6
:1053800036683544456104E03B4E856936683544EE
:105390004561057D05F00704364D05EBC4010D6838
:1053A0002DB908600025C56001258D8006E00A68DA
:1053B0000860C26010618D886D1C8D8000250561BC
:1053C00070BD70B505460C462878642803D0892046
:1053D0002070002070BD2548007818B18B20207007
:1053E0000020F7E7FDF712FE95F82500E8B1012847
:1053F00010D002280FD003281DD12846FFF79CFEAD
:1054000000212846FFF7ABFFFDF745FE0020207086
:105410000120DFE700BF00212846FFF7A0FFFDF7CE
:105420003AFE002020700120D4E7FDF734FE8720EB
:1054300020700020CEE7FDF72EFE8D20207000208A
:10544000C8E72DE9F04105460F4690461C462878EE
:10545000642813D0892020700020BDE8F08100006E
:1054600094000020860000208400002055000020C9
:105470003F000000481B002088000020784800788A
:1054800018B18B2020700020E7E7FDF7BFFD95F8ED
:105490002500002832D001282AD0022827D003284E
:1054A00032D12846FFF748FE00202070B7B1032F05
:1054B00002D0042F13D108E06E681EB12846A968F7
:1054C000B04701E08F2020700CE06E681EB14146AD
:1054D0002846B04701E08F20207003E002E08420DE
:1054E000207000BF00BFFDF7D6FD0120B5E700BF6B
:1054F000FDF7D1FD8E2020700120AEE7FDF7CBFD3A
:10550000872020700020A8E7FDF7C5FD8D202070C2
:105510000020A2E710B553480068FFF771F8044671
:10552000204610BD08B500BF00BF6A4600214D48A7
:105530000068FEF7B6FFFDF769FD4B480068401CA8
:10554000494908600846007800F00708474800EB22
:10555000C8073C681AE0E668434960690968884200
:1055600013D12046FFF7E8FD94F82400022804D167
:1055700001212046FFF7F3FE02E0022084F8250017
:10558000656815B12046A168A8473446002CE2D1D1
:10559000FDF781FDC9E700B587B003200021802217
:1055A000334BCDE90132CDE903104FF6FD700423F2
:1055B000304A00903048FFF790F906AA2FA1042046
:1055C000FFF7F4FA07B000BD2DE9F0414FF4207168
:1055D0002E48FDF721FC40212448FDF71DFC002545
:1055E00015E0681C86B205EB8500284901EBC00474
:1055F00006EB860001EBC00764202070002084F8D1
:105600002500E760AFF298102062681C85B20F2D6C
:10561000E7D305EB85001D4901EBC0046420207031
:10562000002084F82500E060AFF2BC10206200206A
:105630000D49086016490880102016490880134853
:10564000154908600120FEF7A6FE144908600020F5
:10565000FEF7A1FE03490860FFF79DFFBDE8F0815A
:10566000550000209000002088000020481B0020EA
:1056700048190020441B00202555000875432F4F72
:10568000532D494920546D7200000000C8160020B7
:105690008600002084000020940000208C00002060
:1056A000EFF3108072B6704780F310887047204C7B
:1056B000204D25604FF0000484F309881E4C4FF004
:1056C000010525701D4C4FF08055256062B6FEE740
:1056D00030B41A4C4FF08055256030BC704730B460
:1056E000164C4FF08055256030BC704700BF72B635
:1056F000EFF3098028B1203880E8F00F10490968DD
:10570000086000B50F4880475DF804EB0E480F496C
:105710000A7802700A480E490A680260106890E828
:10572000F00F203080F309884EF0040E62B6704707
:1057300020ED00E00000FFFF6200002004ED00E02B
:105740006800002001580008570000205800002081
:105750007000002000203349088070477047704770
:1057600070477047704770B5044610464FF080751B
:105770000560051F28462C606FF00106051F2846AE
:105780002E604FF01236051F28462E604FF003366C
:10579000051F28462E604FF00236051F28462E6052
:1057A0007610051F28462E60051F284629604FF0F9
:1057B0001136051F28462E604FF01036051F28466B
:1057C0002E604FF00936051F28462E604FF0083630
:1057D000051F28462E604FF00736051F28462E600D
:1057E0004FF00636051F28462E604FF00536051F80
:1057F00028462E604FF00436051F28462E6070BDE7
:105800007047704710B507480088401C054908805C
:1058100008460088142803D300200880FFF77AFE8A
:1058200010BD70479C00002010B504462CB9012023
:10583000F64909680882002010BDF5490968086822
:105840008047F24800680A30F6E710B5EF48006874
:10585000C078F0494978884213DCEC4800688078C9
:1058600078B9EA480068808858B9E8480068C07884
:10587000E64909688872E649096848688047002057
:1058800010BD0220FCE710B504462CB90120DF4909
:1058900009680882002010BDDD49096888688047D2
:1058A000DA4800680C30F6E710B5D84B1B68D97899
:1058B000D64B1B685879D84B1B689A6990470446A9
:1058C000D2480068807AE8B13CB9D04800680079D5
:1058D00018B9CE480068807808B1022010BD8CB994
:1058E000CB490968C8688047C84800684079C749FB
:1058F0000968C872C5480068C078C4490968087357
:105900000020EBE70220E9E710B504462CB902209D
:10591000BE4909680882002010BD0020BF490880E8
:10592000BA480068007800F07F0018BBB7490968E2
:10593000487A00F0200131B1B849097841F00201FC
:10594000B64A117005E0B549097801F0FD01B34A86
:10595000117000F0400131B1B049097841F0010106
:10596000AE4A117005E0AD49097801F0FE01AB4A7D
:1059700011703AE0A5480068007800F07F00012827
:1059800001D1A648C8E7A1480068007800F07F0070
:10599000022828D19D4A1268517901F00F0001F0C8
:1059A00080027AB19E4B03EB8002D2F8002C02F009
:1059B0003002102A16D1994A127842F00102974B10
:1059C0001A700FE0964B03EB8002D2F8002C02F421
:1059D0004052B2F5805F05D1904A127842F0010240
:1059E0008E4B1A7001E0002096E789490968086922
:1059F00080478A4890E72DE9F0478448006800789E
:105A000000F07F08B8F1000F0AD180480068407AA2
:105A100000F0DF007D49096848720020BDE8F0878A
:105A2000B8F1020F7ED179480068408818B97748EC
:105A30000068007908B10220F0E7DFF8D8917348D8
:105A40000068477927F080052C4670480068407947
:105A500000F0800038B1724901EB8400D0F8000CEE
:105A600000F0300606E06E4901EB8400D0F8000C2F
:105A700000F4405699F80000A84204D91EB16348CA
:105A80000068807A08B90220C8E707F0800080B17A
:105A9000634901EB8400D0F8000C00F030001028BE
:105AA0004BD1E0B201F01DF8E0B2302100F09FFED2
:105AB00043E05B4901EB8400D0F8000C00F4405057
:105AC000B0F5805F39D1E4B9564A92F82C10E0B2B3
:105AD00001F091F8524A02EB8401D1F8001C4BF618
